:100000000C94CC060C9413070C9413070C94130750
:100010000C9413070C9413070C9413070C941307F8
:100020000C9413070C9413070C946E210C9441222A
:100030000C947B180C9413070C9413070C9413075F
:100040000C9413070C9413070C9413070C941307C8
:100050000C9413070C94DC180C9413070C941307DE
:100060000C9413070C9413070C9413070C941307A8
:100070000C9413070C9413070C9413070C94130798
:100080000C9413070C9413070C9413070C94130788
:100090000C9413070C9413070C9413070C94130778
:1000A0000C9413070C9413070C9413072900680091
:1000B00069006A006B006C006D006E006F007000DC
:1000C0007100720073000000000035001E001F0068
:1000D0002000210022002300240025002600270004
:1000E0002D002E004C002A002B00000014001A00E6
:1000F0000800150017001C0018000C001200130067
:100100002F00300031003900000004001600070005
:1001100009000A000B000D000E000F003300340030
:10012000280000000000E1001D001B00060019006F
:1001300005001100100036003700380052000000A2
:10014000E500E000E20046000000000000002C0096
:10015000000000000000E200500051004F000000CD
:100160000100010001000100010001000100010087
:100170000100010001000100010000000000010079
:100180000100010001000100010001000100010067
:100190000100010001000100010001000100000058
:1001A0000100010001000100010001000100010047
:1001B0000100010001000100010001000000010038
:1001C0000100010001000100010001000100010027
:1001D0000100010001000000000001000100010019
:1001E0000100010001000100010001000100010007
:1001F00001000000010001000100010000000000FA
:1002000000000100000000000000010001000100EA
:1002100001000000010001000100010001000100D7
:1002200001000100010001000100010001000000C7
:1002300000000100010001000100010001000100B7
:1002400001000100010001000100010001000100A6
:100250000100000001000100010001000100010097
:100260000100010001000100010001000100010086
:100270000000010001000100010001000100010077
:100280000100010001000100010000000000010068
:100290000100010001000100010001000100010056
:1002A0000100010001000000010001000100010047
:1002B000000000000000010000000000000001003C
:1002C0000100010001000000010001000100010027
:1002D0000100010001000100010001000100010016
:1002E0000100000000000100010001000100010008
:1002F00001000100010001000100010001000100F6
:1003000001000100010000000100010001000100E6
:1003100001000100010001000100010001000100D5
:1003200001000100000001000100010001000100C6
:1003300001000100010001000100010001000000B6
:1003400000000100010001000100010001000100A6
:100350000100010001000100010000000100010096
:10036000010001000000000000000100000000008A
:100370000000010001000100010000000100010077
:100380000100010001000100010001000100010065
:100390000100010001000000000001000100010057
:1003A0000100010001000100010001000100010045
:1003B0000100010001000100010000000100010036
:1003C0000100010001000100010001000100010025
:1003D0000100010001000100000001000100010016
:1003E0000100010001000100010001000100010005
:1003F00001000000000001000100010001000100F7
:1004000001000100010001000100010001000000E5
:1004100001000100010001000000000000000100D7
:1004200000000000000001000100010001000000C8
:1004300001000100010001000100010001000100B4
:1004400001000100010001000100000000000100A6
:100450000100010001000100010001000100010094
:100460000100010001000100010001000100000085
:100470000100010001000100010001000100010074
:100480000100010001000100010001000000010065
:100490000100010001000100010001000100010054
:1004A0000100010001000000000001000100010046
:1004B0000100010001000100010001000100010034
:1004C0000100000001000100010001000000000027
:1004D0000000010000000000000001000100010018
:1004E0000100000001000100010001000100010005
:1004F00001000100010001000100010001000000F5
:1005000000000100010001000100010001000100E4
:1005100001000100010001000100010001000100D3
:1005200001000000010001000100010001000100C4
:1005300001000100010001000100010001000100B3
:1005400000000100010001000100010001000100A4
:100550000100010001000100010000000000010095
:100560000100010001000100010001000100010083
:100570000100010001000000010001000100010074
:100580000000000000000100000000000000010069
:100590000100010001000000010001000100010054
:1005A0000100010001000100010001000100010043
:1005B0000100000000000100010001000100010035
:1005C0000100010001000100010001000100010023
:1005D0000100010001000000010001000100010014
:1005E0000100010001000100010001000100010003
:1005F00001000100000001000100010001000100F4
:1006000001000100010001000100010001000000E3
:1006100000000100010001000100010001000100D3
:1006200001000100010001000100000001000100C3
:1006300001000100000000000000010000000000B7
:1006400000000100010001000100000001000100A4
:100650000100010001000100010001000100010092
:100660000100010001000000000001000100010084
:100670000100010001000100010001000100010072
:100680000100010001000100010000000100010063
:100690000100010001000100010001000100010052
:1006A0000100010001000100000001000100010043
:1006B0000100010001000100010001000100010032
:1006C0000100000000000100010001000100010024
:1006D0000100010001000100010001000100000013
:1006E0000100010001000100000000000000010005
:1006F00000000000000001000100010001000000F6
:1007000001000100010001000100010001000100E1
:1007100001000100010001000100000000000100D3
:1007200001000100010001000100010001000100C1
:1007300001000100010001000100010001000000B2
:1007400001000100010001000100010001000100A1
:100750000100010001000100010001000000010092
:100760000100010001000100010001000100010081
:100770000100010001000000000001000100010073
:100780000100010001000100010001000100010061
:100790000100000001000100010001000000000054
:1007A0000000010000000000000001000100010045
:1007B0000100000001000100010001000100010032
:1007C0000100010001000100010001000100000022
:1007D0000000010001000100010001000100010012
:1007E0000100010001000100010001000100010001
:1007F00001000000010001000100010001000100F2
:1008000001000100010001000100010001000100E0
:1008100000000100010001000100010001000100D1
:1008200001000100010001000100000000000100C2
:1008300001000100010001000100010001000100B0
:1008400001000100010000000100010001000100A1
:100850000000000000000100000000000000010096
:100860000100010001000000010001000100010081
:100870000100010001000100010001000100010070
:100880000100000000000100010001000100010062
:100890000100010001000100010001000100010050
:1008A0000100010001000000010001000100010041
:1008B0000100010001000100010001000100010030
:1008C0000100010000000100010001000100010021
:1008D0000100010001000100010001000100000011
:1008E0000000010001000100010001000100010001
:1008F00001000100010001000100000001000100F1
:1009000001000100000000000000010000000000E4
:1009100000000100010001000100000001000100D1
:1009200001000100010001000100010001000100BF
:1009300001000100010000000000010001000100B1
:10094000010001000100010001000100010001009F
:100950000100010001000100010000000100010090
:10096000010001000100010001000100010001007F
:100970000100010001000100000001000100010070
:10098000010001000100010001000100010001005F
:100990000100000000000100010001000100010051
:1009A0000100010001000100010001000100000040
:1009B0000100010001000100000000000000010032
:1009C0000000000000000100010001000100000023
:1009D000010001000100010001000100010001000F
:1009E0000100010001000100010000000000010001
:1009F00001000100010001000100010001000100EF
:100A000001000100010001000100010001000000DF
:100A100001000100010001000100010001000100CE
:100A200001000100010001000100010000000100BF
:100A300001000100010001000100010001000100AE
:100A400001000100010000000000010001000100A0
:100A5000010001000100010001000100010001008E
:100A60000100000001000100010001000000000081
:100A70000000010000000000000001000100010072
:100A8000010000000100010001000100010001005F
:100A9000010001000100010001000100010000004F
:100AA000000001000100010001000100010001003F
:100AB000010001000100010001000100010001002E
:100AC000010000000100010001000100010001001F
:100AD000010001000100010001000100010001000E
:100AE00000000100010001000100010001000100FF
:100AF00001000100010001000100000000000100F0
:100B000001000100010001000100010001000100DD
:100B100001000100010000000100010001000100CE
:100B200000000000000001000000000000000100C3
:100B300001000100010000000100010001000100AE
:100B4000010001000100010001000100010001009D
:100B5000010000000000010001000100010001008F
:100B6000010001000100010001000100010001007D
:100B7000010001000100000001000100010001006E
:100B8000010001000100010001000100010001005D
:100B9000010001000000010001000100010001004E
:100BA000010001000100010001000100010000003E
:100BB000000001000100010001000100010001002E
:100BC000010001000100010001000000010001001E
:100BD0000100010000000000000001000000000012
:100BE00000000100010001000100000012036B0081
:100BF0006500790062006F0061007200640000000F
:100C0000160371006D006B006200750069006C00D6
:100C100064006500720000000403090409026D000D
:100C2000040100A0FA0904000001030101000921E8
:100C3000110100012240000705810308000A090490
:100C400001000103010200092111010001224D00F0
:100C50000705820308000A090402000103000000DE
:100C60000921110100012236000705830308000A4B
:100C70000904030001030000000921110100012201
:100C80003900070584032000011201100100000053
:100C900008EDFE606001000102000105010906A1E6
:100CA00001050719E029E71500250195087501815F
:100CB000020508190129059505750191029501752F
:100CC0000391010507190029F71500250195F8750D
:100CD000018102C005010980A101850216010026DB
:100CE00003001A81002A8300751095018100C00558
:100CF0000C0901A1018503160100269C021A0100BE
:100D00002A9C02751095018100C005010902A1010C
:100D10000901A100050919012905150025019505FD
:100D200075018102950175038101050109300931C1
:100D30001581257F95027508810609381581257F63
:100D4000950175088106050C0A38021581257F95E5
:100D50000175088106C0C005010906A10105071932
:100D6000E029E715002501950875018102950175B7
:100D7000088101050819012905950575019102955C
:100D800001750391010507190029FF150026FF00D1
:100D9000950675088100C00011241FBECFEFDAE070
:100DA000DEBFCDBF04B603FE27C080915E029091E6
:100DB0005F02A0916002B09161028730904BA74022
:100DC000B04BD1F410925E0210925F02109260025A
:100DD0001092610214BE84B7877F84BF0FB6F89467
:100DE000A8958091600088618093600010926000F7
:100DF0000FBEE0E0F8E3099511E0A0E0B1E0ECE51A
:100E0000FBE402C005900D92AC33B107D9F722E0A4
:100E1000ACE3B1E001C01D92AE35B207E1F70E942C
:100E2000C41E0C9480250C94000090E080E008958E
:100E30000895089581E00895089581E008950C943F
:100E40001A070E94CC102FEF84E39CE021508040D1
:100E50009040E1F700C000000C94FF18EF92FF9261
:100E60000F931F93CF93DF938C01FC01E080F180FF
:100E700080917C01811140C082818823C1F1C7012A
:100E80000E945116C82F682FC7010E94FA15B7019A
:100E90008C2F0E946608EC01B8010E941F0788236E
:100EA00009F44BC0B801CE010E946F0A882309F4EF
:100EB00044C0C531F0E7DF0720F5C23080E7D8072E
:100EC00008F04DC0C115E0E7DE0791F1C130D04711
:100ED000E1F181E080933E0180933F01C801DF9101
:100EE000CF911F910F91FF90EF900C941D07C701B8
:100EF0000E942816C82FCBCFC7010E945116B701F8
:100F0000C8CFCC3380E7D80709F49BC0CD33D04796
:100F100001F7F8018281882309F4BAC010923F01D9
:100F20000E94AB1890933D0180933C0180E296C0F3
:100F3000F801828181110E94210780E0DF91CF9129
:100F40001F910F91FF90EF900895F80182818823FF
:100F5000A1F380911E02816080931E02EECFF80102
:100F60008281882309F4BACF0E940C18811102C033
:100F70000E94F2170E94291890E0909350028093EB
:100F80004F02FE01E350F04780914F028160E23151
:100F9000F10538F4EE57FA4D0C94302580914F024C
:100FA000826080934F0280914F020E942D180E9410
:100FB000CC10C3CF80914F028460F3CF80914F0259
:100FC0008860EFCF80914F028061EBCF80914F021C
:100FD0008062E7CF80914F028064E3CF80914F021F
:100FE0008068DFCF80914F028C60DBCF80914F0211
:100FF0008E7FD7CF80914F028D7FD3CF80914F02CC
:101000008B7FCFCF80914F02877FCBCF80914F02D4
:101010008F7EC7CF80914F028F7DC3CF80914F02CB
:101020008F7BBFCF80914F028F77BBCF80914F02D4
:10103000837FB7CF90914F02892F97FB87F9805814
:10104000B0CFF8018281882361F010923E010E94A6
:10105000AB1890933D0180933C0182E00E94310ED9
:101060006CCF80913E0181110FC080913C01909125
:101070003D010E94B718883C910530F486E20E9439
:10108000060D86E20E94E20D82E00E94380E55CFE6
:1010900080913F0181110FC080913C0190913D01F1
:1010A0000E94B718883C910530F487E20E94060D33
:1010B00087E20E94E20D80E2E8CF0C94BE0A0C9415
:1010C000C00A0C941C070C9461080895972F70E0D7
:1010D0002FE0929F600D711D1124FB019AE5899FFD
:1010E000E00DF11D1124EE0FFF1FE455FF4F859118
:1010F00094910895FC01EE0FFF1FE451F44F859188
:10110000949108950E9466080E94F3099C0181153C
:1011100040E4940708F097C0211580E3380708F0F1
:10112000FAC0203E310508F074C0203C310508F0BB
:10113000E5C0283A310588F4253A310508F0E2C0C7
:101140002130310509F477C0C9010497813A91052E
:1011500008F471C030E020E06EC0C901885A9109DE
:101160004597C0F7283A310509F4FEC0293A310500
:1011700009F4FDC02A3A310509F4FCC02B3A3105C7
:1011800009F4FBC02C3A310509F4FAC02B3B3105B8
:1011900009F4F9C02C3B310509F4F8C02D3A3105AA
:1011A00009F4F7C0203B310509F4F6C02E3A3105A9
:1011B00009F4F5C02F3A310509F4F4C0213B31059B
:1011C00009F4F3C0223B310509F4F2C0233B310599
:1011D00009F4F1C0243B310509F4F0C0253B310589
:1011E00009F4EFC0263B310509F4EEC0273B310579
:1011F00009F4EDC0283B310509F4ECC0293B310569
:1012000009F4EBC02A3B310509F4EAC020E034E4DC
:1012100012C0211590E2390780F42F3F310509F003
:1012200050F4283E310538F0C901805F91093065DE
:10123000409708F08FCFC9010895C9019F700E949F
:101240007A089C01F8CF8115944508F041C021151A
:1012500083E5380708F06AC0211592E5390738F5AB
:10126000211541E5340708F05CC0211580E53807F9
:1012700008F454C0C90134E0969587953A95E1F792
:101280008370422F46954695437090E2499FA00196
:101290001124582B822F837021E030E002C0220FEE
:1012A000331F8A95E2F7242B352B3C68C4CFC90144
:1012B0008370992741E050E002C0440F551F8A9582
:1012C000E2F72695269580E2289F90011124EBCF26
:1012D000211596E5390748F4922F882721153545C1
:1012E000C8F59C01246F306AA6CFC90190563F70A3
:1012F0008115904108F02ECF30629DCFC901805CEE
:1013000091099DCF253A310549F1263A310549F534
:1013100022E830E490CF3327306C8DCF3F70306AB5
:101320008ACF322F2227216F306A85CFC90183707F
:10133000992741E050E002C0440F551F8A95E2F71B
:101340002695269580E2289F90011124242B352B89
:101350003A6871CF88279F719C01CECF21E830E495
:101360006ACF23E830E467CF22EE34E464CF29EE7D
:1013700034E461CF2AEE34E45ECF25EB34E45BCF76
:1013800026EB34E458CF23EB34E455CF24EB34E49C
:1013900052CF27EB34E44FCF2CEC34E44CCF2DEC80
:1013A00034E449CF23E835E446CF2AE835E443CF97
:1013B00022E935E440CF24E935E43DCF21E236E4AB
:1013C0003ACF23E236E437CF24E236E434CF25E2C5
:1013D00036E431CF26E236E42ECF27E236E42BCFB7
:1013E0002AE236E428CF803E910581F1C8F48133AA
:1013F000910509F462C048F48932910509F456C098
:101400008A32910509F460C0089589339105B9F0D5
:1014100082389105A1F08533910509F440C0089503
:10142000863E910561F138F4823E9105B1F0833E2C
:101430009105E1F00895873E910551F108952091BD
:101440004F022370D9F080EE90E0089520914F0272
:1014500020FF14C089E390E0089520914F0222FFFD
:101460000DC024FD09C083EE90E0089520914F0245
:1014700022FD31C024FF02C090E080E00895209159
:101480004F0223FFFBCF24FDF7CF87EE90E00895B6
:1014900020914F0223FFEECF86EE90E00895209139
:1014A0004F0225FFEBCF89E290E0089520914F0293
:1014B00025FFE4CF85E390E0089520914F0226FFB9
:1014C000DDCF8AE290E0089520914F0226FFD6CF2B
:1014D00081E390E0089582EE90E0089508950F93DF
:1014E0001F93CF938C01FB018281811106C0C1E063
:1014F0008C2FCF911F910F910895C0914D01C11173
:1015000025C00531104799F70E946E0A81E080934B
:101510004D010E94AB1890934C0180934B011092A7
:101520004001109242011092410110924401109228
:101530004301109246011092450110924801109209
:10154000470110924A0110924901D2CF80914B017C
:1015500090914C010E94B718883C910540F680910B
:101560004001E82FF0E0EE0FFF1FEF5BFE4F11830D
:1015700000838F5F80934001C0E0BACF0C941807BE
:101580000C94190785B7806885BF85B7806885BFCB
:10159000A2E2B1E061E070E08D91E82FE295EF709A
:1015A000F0E041A18F709B0101C0220F8A95EAF7FC
:1015B000922F9095942391A382A1822B82A381E004
:1015C000A832B80749F7A3E1B1E061E070E08D917E
:1015D000E82FE295EF70F0E041A18F709B0101C010
:1015E000220F8A95EAF7922F9095942391A382A1D6
:1015F000822B82A381E0A232B80749F7EAE5F1E045
:10160000AEE4B1E086E691E0119211921D921D9236
:101610008E179F07C9F70C945D082F923F924F9247
:101620005F926F927F928F929F92AF92BF92CF9272
:10163000DF92EF92FF920F931F93CF93DF930EE40D
:1016400011E082E2C82E81E0D82E1801EE24E39446
:10165000F12C66246394D1018D909D901D011E9202
:101660001E92E60189916E01E82FE295EF70F0E09D
:1016700091A18F70970101C0220F8A95EAF7892FF7
:10168000822B81A382A1722E7094872182A3D0EA3B
:10169000DA95F1F763E171E090E080E0EB015990B9
:1016A000BE01452D42954F7050E0EA0148A0AD9033
:1016B000BC901197552D5F70E70102C0CC0FDD1F64
:1016C0005A95E2F7AE01442109F059C0A701082E4E
:1016D00002C0440F551F0A94E2F74A295B2911966C
:1016E0005C934E9301968F309105C1F681A17822CB
:1016F00071A282A1282B22A38D919C918816990614
:1017000041F0609266010E94AB189093680180934B
:101710006701DAE52D16D1E03D0609F09CCF8091F6
:1017200066018823B1F080916701909168010E9461
:10173000B718069770F0EAE5F1E0D8018D919D9118
:101740008D0181939193B1E00A351B07B1F7109297
:1017500066010E945F0881E0DF91CF911F910F9198
:10176000FF90EF90DF90CF90BF90AF909F908F90C1
:101770007F906F905F904F903F902F90089550E032
:1017800040E0ABCFE82FF0E0EE0FFF1FE65AFE4F30
:10179000808191810895089590936E0180936D01E9
:1017A0000895E0916D01F0916E01309721F0019064
:1017B000F081E02D099480E00895E0916D01F091B1
:1017C0006E01309721F00280F381E02D0994089595
:1017D000E0916D01F0916E01309721F00480F58168
:1017E000E02D0994089520916B0130916C01281728
:1017F000390771F090936C0180936B01E0916D015A
:10180000F0916E01309721F00680F781E02D099468
:1018100008952091690130916A012817390771F004
:1018200090936A0180936901E0916D01F0916E01DE
:10183000309721F00084F185E02D099408950895F2
:101840000C941F0C0E94A2180E94C20A0C946C19DE
:101850005F926F927F928F929F92AF92BF92CF9240
:10186000DF92EF92FF920F931F93CF93DF9300D0FD
:1018700000D00F92CDB7DEB70E940D0B90E7A92ED6
:1018800091E0B92E10E000E088248394912C502E32
:10189000802F0E94C20B7C01F501C190D1905F01A5
:1018A000C816D90609F45DC080911E0281FD0E9410
:1018B000CB0B90E080E0CE24DF243401082E02C060
:1018C000660C771C0A94E2F7960126213721232B18
:1018D00009F442C089835A82E620F72081E0EF288C
:1018E00009F480E08B830E94AB188160782F9D8380
:1018F0008C8349815A816B818D810E94DD0C000FA0
:10190000111FF801E059FE4F8081918168267926E8
:10191000718260820E94191C0E94D10B90916F010C
:101920008917B1F10E94D10B80936F010F900F9036
:101930000F900F900F90DF91CF911F910F91FF901B
:10194000EF90DF90CF90BF90AF909F908F907F905F
:101950006F905F900C94630801968F30910509F0A9
:10196000ACCF0F5F1F4F0630110509F090CF8FEFFE
:1019700089838A831B820E94AB188160782F9D83A4
:101980008C8349815A816B818D810E94DD0CC2CF8D
:101990000F900F900F900F900F90DF91CF911F91AC
:1019A0000F91FF90EF90DF90CF90BF90AF909F90FE
:1019B0008F907F906F905F900895CF93DF93CDB716
:1019C000DEB72B970FB6F894DEBF0FBECDBF4F83A7
:1019D000588769877A878B871E8285E0FE01379654
:1019E000DE01119601900D928A95E1F749815A81A5
:1019F0006B817C818D819E812B960FB6F894DEBF22
:101A00000FBECDBFDF91CF910C945413882309F4FE
:101A1000D8C0823871F40E94D10B81FDD2C089E315
:101A20000E94F9160E94C31789E30E9436170C948E
:101A3000C317833859F40E94D10B80FDC2C083E5DF
:101A40000E94F9160E94C31783E5EFCF843859F43A
:101A50000E94D10B82FDB5C087E40E94F9160E9456
:101A6000C31787E4E2CF9CEF980F913A18F40E94D5
:101A7000F916DDCF90E2980F983050F4877091E01E
:101A800001C0990F8A95EAF7892F0E947A17CFCF64
:101A90009BE5980F933070F4853A31F0863A39F02F
:101AA00083E890E00C94F30B81E890E0FBCF82E8B0
:101AB00090E0F8CF98E5980F953108F082C0883A09
:101AC00009F440C0893A09F440C08A3A09F440C098
:101AD0008B3A09F440C08C3A09F440C08B3B09F4BE
:101AE00040C08C3B09F440C08D3A09F440C0803BB3
:101AF00009F440C08E3A09F440C08F3A09F440C05E
:101B0000813B09F440C0823B09F440C0833B09F4A7
:101B100040C0843B09F440C0853B09F440C0863B8B
:101B200009F440C0873B09F440C0883B09F440C039
:101B3000893B09F440C08A3B09F440C090E080E052
:101B40000C94090C82EE90E0FBCF89EE90E0F8CF88
:101B50008AEE90E0F5CF85EB90E0F2CF86EB90E057
:101B6000EFCF83EB90E0ECCF84EB90E0E9CF87EB15
:101B700090E0E6CF8CEC90E0E3CF8DEC90E0E0CF0E
:101B800083E891E0DDCF8AE891E0DACF82E991E065
:101B9000D7CF84E991E0D4CF81E292E0D1CF83E244
:101BA00092E0CECF84E292E0CBCF85E292E0C8CF44
:101BB00086E292E0C5CF87E292E0C2CF8AE292E06D
:101BC000BFCF0895882309F44BC0823871F40E9476
:101BD000D10B81FF45C089E30E94F9160E94C3170B
:101BE00089E30E9436170C94C317833859F40E9476
:101BF000D10B80FF35C083E50E94F9160E94C31700
:101C000083E5EFCF843859F40E94D10B82FF28C0BE
:101C100087E40E94F9160E94C31787E4E2CF9CEF85
:101C2000980F913AF0F290E2980F983050F4877044
:101C300091E001C0990F8A95EAF7892F0E948017D9
:101C4000D2CF9BE5980F933020F490E080E00C9485
:101C5000F30B885A853120F490E080E00C94090C55
:101C60000895882321F00E947A170C94C3170895D1
:101C7000882321F00E9480170C94C31708958F9237
:101C80009F92AF92BF92DF92EF92FF920F931F93BA
:101C9000CF93DF9300D000D00F92CDB7DEB77C0199
:101CA0006D837983FC01058102950F7012811111FA
:101CB0000E9499170E94F216D82E882371F01123E2
:101CC000A1F08D81805E883080F082E00E94DC1679
:101CD0000E94F21691E0D82ED926E981E295EF70A4
:101CE000F0E0EC56FA4D0C943025D12CF6CF09815A
:101CF0000F70F981F07F11F00295007F1123B1F090
:101D0000002361F08D81805E883018F02D812111D3
:101D100009C0802F0E947A170E94C3178D810E94EC
:101D2000060D15C0802F0E948B17F6CF8D810E9463
:101D3000E20D002361F08D81805E883018F03D81D6
:101D4000311129C0802F0E9480170E94C317DD2007
:101D500009F4D3C10E94CF1680FDCFC1F7011282D2
:101D60000E94C9160E941215C7010E948E100E947F
:101D7000C9160F900F900F900F900F90DF91CF9199
:101D80001F910F91FF90EF90DF90BF90AF909F90C9
:101D90008F900C943415802F0E949117D6CF4981D3
:101DA0004F70B42E5981507F503219F0B29480EFA9
:101DB000B8228D81882369F0813029F1112369F1DE
:101DC000002359F0F701858180FFA8CF8F708583AC
:101DD00004C0112361F0011104C08B2D0E94310E4B
:101DE000B6CF8B2D0130D1F70E94AD17B0CF0111C6
:101DF00006C00E94B0178B2D0E94380EA8CF01306C
:101E000009F4A5CFF6CF112321F0063008F09FCFBB
:101E1000E4CF053008F09BCFEECF002361F38D8136
:101E20000E94E20D94CF898186958695837069F032
:101E3000813009F08CCF8D8199819370111102C08E
:101E400090E080E00E94090C82CF8D81998193708F
:101E5000111102C090E080E00E94F30B78CF8D81D9
:101E6000112329F00E94271B0E940E1C70CF0E9494
:101E70008F1BFACF8981837009F05FC0111167CF82
:101E80002D81229526952770220F220F8D818F702C
:101E900090E0B0E0A0E04C015D01022E04C0880C8F
:101EA000991CAA1CBB1C0A94D2F7FD8160E070E06B
:101EB000CB01F4FF0FC06FE070E080E090E004C061
:101EC000660F771F881F991F2A95D2F76095709526
:101ED0008095909529812695269523702D83223013
:101EE000B1F0233019F19B01AC01282939294A2985
:101EF0005B2929833A834B835C833D8169817A81A5
:101F00008B819C813130B1F00E949F1420CF9B01C6
:101F1000AC01282939294A295B2929833A834B8333
:101F20005C83CA01B9010E94C91411CF0E949F1499
:101F3000C501B4010E9475140ACF8695112311F0D2
:101F400089818170882309F402CF2D8122952695FD
:101F50002770220F220F8D818F7090E0B0E0A0E0FB
:101F60004C015D01022E04C0880C991CAA1CBB1CEC
:101F70000A94D2F73D8160E070E0CB0134FF0FC0DE
:101F80006FE070E080E090E004C0660F771F881F6C
:101F9000991F2A95D2F76095709580959095498103
:101FA0004695469543704D834230B1F0433019F168
:101FB0009B01AC01282939294A295B2929833A83C5
:101FC0004B835C833D8169817A818B819C81313037
:101FD000B1F00E94A515BBCE9B01AC01282939297F
:101FE0004A295B2929833A834B835C83CA01B9015F
:101FF0000E94CF15ACCE0E94A515C501B4010E9468
:102000007B15A5CE3D81323F09F447C080F4303FB7
:1020100079F1313FD9F1832F805E8031D0F01123E7
:1020200009F456C001117ACE89818F7133C04D8178
:10203000433FD1F1443F99F7112309F43FC089810F
:102040008F7189830E94121563E089810E94D316E3
:102050007ECE5D815F705D8389818F71112321F058
:102060000E9412158D81BACE0E9434158D81C4CE86
:10207000112341F0053008F06ACE89818F710E94EA
:10208000591565CE063008F062CEF7CF89818F7181
:10209000112339F00E9412155ACE89818F711123B4
:1020A000C9F30E94341553CE112329F089818F7111
:1020B0000E94FD144CCE0E94F31449CE81E00E9490
:1020C000DC16023008F443CE82E00E94DC163FCEDC
:1020D0000111A5CE89818F71E4CF49814F706D8147
:1020E000C7010E9415070E94EE1331CE49814F703F
:1020F0006D81C7010E9465082ACE0F900F900F9046
:102100000F900F90DF91CF911F910F91FF90EF9063
:10211000DF90BF90AF909F908F9008950F931F9383
:10212000CF93DF93EC018B819C81892B29F08881EF
:10213000998189238F3F29F4DF91CF911F910F91CE
:102140000895CE010E942E078823B1F3688179811A
:102150008A810E949F168C010E94F9150E946A14C0
:10216000B801CE01DF91CF911F910F910C943F0EDA
:102170000E9499170E94AA170E946C170E94C31709
:102180000E94FF1C0E940E1C90E080E00E94F30B56
:1021900090E080E00C94090C0E9488170C94B81011
:1021A0000E949316282F892F82958F70903C80F47F
:1021B0008A30B0F4843020F4823090F480E00895C6
:1021C0008630E1F781E0203E88F0213FB9F70EC06C
:1021D0008C3011F08F3091F793FB882780F90895A8
:1021E00081E0203F39F018F4203E40F70895243F65
:1021F00029F7FCCF0895CF93DF9300D000D00F9242
:10220000CDB7DEB70F900F900F900F900F90DF912A
:10221000CF910895CF93DF9300D000D000D0CDB7F9
:10222000DEB726960FB6F894DEBF0FBECDBFDF91A6
:10223000CF9108951F93CF93DF93E0917D0116E036
:1022400080917E018E1304C0DF91CF911F9108957C
:10225000CE2FD0E01E9FF0011124E158FE4F4081A7
:10226000518162817381848195810E940A11FE01EE
:102270003196E770E5CF4091AF015091B001609188
:10228000B1017091B2018091B3019091B4010C94AD
:102290000A111F93CF93DF938091B401807FC1F423
:1022A0008091B1018823A1F080917D01C0917E01D0
:1022B0006091AF017091B0014091B2015091B301B2
:1022C000D62FD723DA01A095B09516E0C81304C025
:1022D000DF91CF911F91089590E04115510511F0C4
:1022E000DF3F31F401968770F1CF2A0F3B1F17C0F3
:1022F000189FF001199FF00D1124E158FE4F218124
:102300002713F0CF20812613EDCF22812111EACFB0
:10231000238134812417350740F3241B350B283CD7
:10232000310500F72091B4012F7020612093B40192
:1023300026E0289FF001299FF00D1124EC57FE4F55
:1023400080818F70806180838FEA91E00E948E107F
:10235000DF91CF911F910C941A119F92AF92BF926F
:10236000CF92DF92EF92FF920F931F93CF93DF9361
:10237000CDB7DEB72B970FB6F894DEBF0FBECDBF3B
:102380008C0185E0F801DE01179601900D928A9587
:10239000E1F7D8014C9111965C9111971296EC904F
:1023A00012978091B2019091B301009709F46BC12B
:1023B0002091AF013091B001632F62236F3F09F488
:1023C00062C11396CD90DC909090B101992009F4F0
:1023D000F8C0C816D90608F43FC0F601E81BF90B8F
:1023E000CF01FF24F394883C910508F0F12C8FEA8B
:1023F000A82E81E0B82E8091B401982F907FFF2005
:1024000009F4B7C0911180C0FE2C35132AC02413E3
:1024100028C0E11026C08F7080618093B4010E94B3
:102420003B11C5010E948E108091B401D801159610
:102430008C938F2D2B960FB6F894DEBF0FBECDBFB9
:10244000DF91CF911F910F91FF90EF90DF90CF9090
:10245000BF90AF909F900895809590958C0D9D1D95
:10246000C0CFCD2829F0842F85238F3F09F019C1D3
:1024700080E0B82FB170DB2EE0917D0120917E01CC
:1024800036E080FD1CC0EE20A1F28091B401816095
:102490008093B401F12CCDCF8E2F90E03E9FF001C0
:1024A0001124E158FE4F6181651306C060816413F9
:1024B00003C062816E11E7CFFC013196E770E21331
:1024C000EBCF4F8358878F8198850E949316292FD1
:1024D00022952F70903260F0225F2F70223078F4B6
:1024E0009F7051F0F8019581907F31F4D12C0AC092
:1024F0009F7011F08823D1F3805E8830B8F3C80153
:102500000E948E10FD2C95CF351306C0241304C0F5
:10251000D801EE2009F47BC04F8358878F819885BE
:102520000E94D010882309F4B8C0EE2009F4B5C089
:102530008091B401803270F02091AF013091B001F0
:102540003A8329831B82DD82CC828E83CE01019661
:102550000E948E1086E0F801AFEAB1E001900D9282
:102560008A95E1F70E9449110E943B11FF24F394E0
:1025700060CF911113C07C2DDB86CA866E2D8B85B2
:102580000E94FB108FEA91E00E948E1086E0F50118
:1025900011928A95E9F70E943B114BCF3513BCCFBE
:1025A0002413BACFE110B8CFD80115968C93C80187
:1025B0000E948E1086E0F50111928A95E9F7F92CB8
:1025C00038CFC816D90688F1B601681B790BCB0144
:1025D000F12C883C910508F047C0FE2CEE2009F450
:1025E0005CC0351330C024132EC08091B40180FD2F
:1025F00021C0982F907FF1F0D80115968C931597F4
:10260000903F39F0982F907F905F8F70892B1596AF
:102610008C93C8010E948E1086E0F801AFEAB1E009
:1026200001900D928A95E1F7B6CF809590958C0D2B
:102630009D1DCECF86E0F801AFEAB1E001900D928A
:102640008A95E1F7F6CE4F8358878F8198850E944F
:10265000D01081117FCF8091B40181608093B4014B
:10266000C8010E948E10E5CE7C2DDB86CA866E2DB9
:102670008B850E94FB1086E0EFEAF1E0DF011D92FE
:102680008A95E9F788CFEE2041F04F8358878F81F4
:1026900098850E94D01081115DCFC8010E948E10D4
:1026A00065CF81E08E25E5CE1F93CF93DF93CDB725
:1026B000DEB72C970FB6F894DEBF0FBECDBF4F83A9
:1026C000588769877A878B879C87CE0107960E94F7
:1026D000AD11882369F08A859B85892B39F04F815C
:1026E0005885842F85238F3F09F071C016E05FC0A5
:1026F00086E0FE013796DE01119601900D928A95D3
:10270000E1F78A859B85892B89F388859F818923B9
:102710008F3F61F320917E0130E0C90101968770FF
:10272000992740917D014817190671F40E94CC1039
:1027300010927E0110927D0186E0EFEAF1E0DF0168
:102740001D928A95E9F7D2CF96E0929FD001939F90
:10275000B00D1124A158BE4FFE01319601900D928B
:102760009A95E1F780937E010E941A11BFCF819F55
:10277000C001112481589E4F0E94AD118823E9F0B9
:10278000E0917D011E9FF0011124E158FE4F408130
:10279000518162817381848195810E940A118091A7
:1027A0007D0190E001968770992780937D0180914B
:1027B0007D0190917E018913DACF2C960FB6F894A3
:1027C000DEBF0FBECDBFDF91CF911F910895698508
:1027D0007A858B859C850E940A1188CFEF92FF92A3
:1027E0000F931F93CF93DF938C01892B89F0F12CEA
:1027F000EE24E394E8012196F8018491843709F4EA
:1028000057C0A0F4823009F43EC048F48130D1F0C2
:10281000DF91CF911F910F91FF90EF9008959CEF62
:10282000980F9037A8F70E94060D0AC0853709F463
:102830004CC09CE7980F903758F78F770E94E20DB5
:102840008E0116C00E5F1F4FFE01849190E2980F1B
:10285000983060F48770FE2D01C0FF0F8A95EAF76B
:102860008F2F0E949C170E94C31702C00E94060D62
:102870008F2D815008F4BECFEFE9FFE03197F1F7DB
:1028800000C00000F6CF0E5F1F4FFE01849190E262
:10289000980F983050F48770FE2D01C0FF0F8A9575
:1028A000EAF78F2F0E94A217DECF0E94E20DE0CF41
:1028B0000E5F1F4FFE01C491C150D0F28FE99FE01F
:1028C0000197F1F700C00000F7CF0E5F1F4FFE0128
:1028D000F490CECF08956093F5017093F601809344
:1028E000F7019093F8010C94B810CF93DF9300D0C8
:1028F00000D0CDB7DEB769837A838B839C838091C8
:10290000F5019091F601A091F701B091F8012981AC
:102910003A814B815C81822B932BA42BB52B809326
:10292000F5019093F601A093F701B093F8010F9091
:102930000F900F900F90DF91CF910C94B810CF9320
:10294000DF9300D000D0CDB7DEB769837A838B8365
:102950009C838091F5019091F601A091F701B091CF
:10296000F80129813A814B815C8182239323A4233E
:10297000B5238093F5019093F601A093F701B093EE
:10298000F8010F900F900F900F90DF91CF910C9462
:10299000B810CF93DF9300D000D0CDB7DEB76983F6
:1029A0007A838B839C838091F5019091F601A091AD
:1029B000F701B091F80129813A814B815C8182272E
:1029C0009327A427B5278093F5019093F601A09350
:1029D000F701B093F8010F900F900F900F90DF91D7
:1029E000CF910C94B8101092F1011092F201109254
:1029F000F3011092F4010C94B81041E050E060E053
:102A000070E004C0440F551F661F771F8A95D2F7E8
:102A10004093F1015093F2016093F3017093F4013C
:102A20000C94B810282F81E090E0A0E0B0E004C042
:102A3000880F991FAA1FBB1F2A95D2F74091F10159
:102A40005091F2016091F3017091F401842B952B68
:102A5000A62BB72B8093F1019093F201A093F30181
:102A6000B093F4010C94B81041E050E060E070E0E5
:102A700004C0440F551F661F771F8A95D2F74095F3
:102A80005095609570958091F1019091F201A0911F
:102A9000F301B091F40184239523A623B7238093F7
:102AA000F1019093F201A093F301B093F4010C941F
:102AB000B810282F81E090E0A0E0B0E004C0880FBB
:102AC000991FAA1FBB1F2A95D2F74091F10150917F
:102AD000F2016091F3017091F40184279527A627F4
:102AE000B7278093F1019093F201A093F301B09383
:102AF000F4010C94B810CF93DF9300D000D0CDB781
:102B0000DEB769837A838B839C838091F1019091F6
:102B1000F201A091F301B091F40129813A814B8136
:102B20005C81822B932BA42BB52B8093F101909386
:102B3000F201A093F301B093F4010F900F900F9066
:102B40000F90DF91CF910C94B810CF93DF9300D00A
:102B500000D0CDB7DEB769837A838B839C83809165
:102B6000F1019091F201A091F301B091F40129815A
:102B70003A814B815C8182239323A423B5238093E4
:102B8000F1019093F201A093F301B093F4010F903F
:102B90000F900F900F90DF91CF910C94B810CF93BE
:102BA000DF9300D000D0CDB7DEB769837A838B8303
:102BB0009C838091F1019091F201A091F301B09179
:102BC000F40129813A814B815C8182279327A427D4
:102BD000B5278093F1019093F201A093F301B09394
:102BE000F4010F900F900F900F90DF91CF910C9404
:102BF000B8100895E82F2FE0929FE00D11248E2F3A
:102C0000877041E001C0440F8A95EAF7E695E695A2
:102C1000E69585E0E89FF0011124EB54FE4F30E08B
:102C200020E070E05191DF011197CB01022E02C02C
:102C3000969587950A94E2F781708195852784237C
:102C400085278C932F5F3F4F2530310559F7089525
:102C5000E82F2FE0929FE00D11249E2F9770E695AC
:102C6000E695E69585E0E89FF0011124EB54FE4FD0
:102C700050E040E080E0219130E0092E02C036951E
:102C800027950A94E2F721703327042E01C0220F02
:102C90000A94EAF7822B4F5F5F4F4530510559F791
:102CA0000895BF92CF92DF92EF92FF920F931F93FE
:102CB000CF93DF938C01C090F101D090F201E090AE
:102CC000F301F090F4018091F5019091F601A0914B
:102CD000F701B091F801C82AD92AEA2AFB2ACFE1E4
:102CE000D0E0BC2ED701C6010C2E04C0B695A79526
:102CF000979587950A94D2F780FD0EC0219788F7A3
:102D0000B12C8B2DDF91CF911F910F91FF90EF9000
:102D1000DF90CF90BF900895B8018C2F0E94820859
:102D2000019761F3EECFCF93DF93D82FC92F0E9485
:102D300051166D2F7C2FDF91CF910C9482081F9339
:102D4000CF93DF93162FD72F90917C01992339F0E1
:102D5000862F972FDF91CF911F910C949316882384
:102D600091F0862F972F0E945116C82F682F812F20
:102D70009D2F0E94FA15612F7D2F8C2FDF91CF910F
:102D80001F910C948208862F972F0E942816C82F17
:102D9000F2CF8091F901859585958595089580916B
:102DA000F9018770089598E0899F90011124622BA2
:102DB0006093F9010C9412159091F9018095892383
:102DC0008093F901282F277061F4282F082E000C1A
:102DD000330B9217130629F08595859585950C94EC
:102DE000341508959091F901977081E009F480E01D
:102DF0000895909112019923E1F090914F0297FF6D
:102E000018C0E82FE695E695E695EF3139F1209167
:102E1000000130910101E20FF32FF11D877021E0D5
:102E200030E001C0220F8A95EAF78181822B8183ED
:102E300008952091000130910101F90132969FEF30
:102E400040E05191851751F09F3F19F4511101C095
:102E5000942F4F5F4E31A9F79F3F09F40895290F32
:102E6000311D97FD3A95F9018283089590911201E1
:102E7000992301F190914F0297FF1CC0E82FE6952E
:102E8000E695E695EF3139F120910001309101018D
:102E9000E20FF32FF11D877021E030E0A90102C09D
:102EA000440F551F8A95E2F7CA01809591818923C5
:102EB000818308952091000130910101F90132963A
:102EC000205E3F4F9191891303C0DF0111971C923F
:102ED000E217F307B9F7089581E090E0E09100016F
:102EE000F0910101E80FF91F1082019680329105DF
:102EF000A9F7089590911D02982B90931D020895B3
:102F0000982F909580911D02892380931D0208952A
:102F100010921D02089590911C02982B90931C0210
:102F20000895982F909580911C02892380931C020C
:102F3000089510921C02089590911B02982B909373
:102F40001B020895982F909580911B0289238093EE
:102F50001B02089510921B0208958093FA010895B0
:102F60001092FA0108952091000130910101F901B8
:102F70003196205E3F4F80E0919191118F5FE21773
:102F8000F307D1F70895E0910001F09101018091DC
:102F90001D028083E0910001F091010180819091F8
:102FA0001C02892B8083E0910001F0910101808156
:102FB00090911B02892B80839091FA01992361F0F3
:102FC000E0910001F09101018081892B80830E94B2
:102FD000B31781111092FA018091000190910101C3
:102FE0000C94DD0B6DEE7EEF90E080E00E946A2590
:102FF00060E082E090E00E94582560E083E090E08D
:103000000E94582560E084E090E00E94582560E02E
:1030100085E090E00C94582590E080E00E945225D5
:103020009C0181E02D3E3E4F09F080E0089582E052
:1030300090E00C944A25682F82E090E00C9458258B
:1030400083E090E00C944A25682F83E090E00C9494
:10305000582584E090E00C944A25682F84E090E0A5
:103060000C94582580915502843039F110921F023A
:1030700088E190E020E40FB6F894A8958093600072
:103080000FBE2093600080E00E94630883B7817FB9
:10309000846083BF83B7816083BF7894889583B74A
:1030A0008E7F83BF0FB6F894A895809160008861E9
:1030B00080936000109260000FBE089508950895F7
:1030C000CF930E945E180E940D0B0E945F18C0E013
:1030D0008C2F0E94C20B892B31F4CF5FC630C1F711
:1030E00080E0CF91089581E0FCCF0E94CC100E9437
:1030F000D10B0C9463081F921FB61F9211248F935B
:103100009F93AF93BF9380911F02811113C0809151
:103110004B0290914C02A0914D02B0914E0241960B
:10312000A11DB11D80934B0290934C02A0934D02C0
:10313000B0934E02BF91AF919F918F911F901FBE90
:103140001F90189582E084BD93E095BD9AEF97BDDE
:1031500080936E0008952FB7F89480914B02909160
:103160004C02A0914D02B0914E022FBF0895CF9214
:10317000DF92EF92FF929C014FB7F89480914B023F
:1031800090914C02A0914D02B0914E024FBF6C0144
:103190007D01EE24FF24A90170E060E0C416D5068D
:1031A000E606F70638F0821B930BFF90EF90DF9056
:1031B000CF9008950197F7CF1F921FB61F92112449
:1031C0008F939F93AF93BF9380914B0290914C024A
:1031D000A0914D02B0914E020196A11DB11D8093A8
:1031E0004B0290934C02A0934D02B0934E02BF91BC
:1031F000AF919F918F911F901FBE1F9018950E94B5
:10320000F320F8942FEF87EA91E621508040904018
:10321000E1F700C0000087E090EBDC0180935E02E4
:1032200090935F02A0936002B093610288E19CE0FA
:103230000FB6F894A895809360000FBE909360003D
:10324000FFCFAF92BF92CF92DF92EF92FF920F9398
:103250001F93CF93C0E0AA24A394B12CE82EF12CA5
:103260008C2F0E94C20B6C0110E000E0C501002E03
:1032700002C0880F991F0A94E2F78C219D21892BA7
:1032800099F0602F7C2F80E00E946608E816F9060E
:1032900059F481E0CF911F910F91FF90EF90DF9053
:1032A000CF90BF90AF9008950F5F1F4F0F30110563
:1032B000E9F6CF5FC630A1F680E0ECCFCF93C82F00
:1032C0008CE20E942119882321F08C2FCF910C943D
:1032D000211980E0CF910895CF93DF9300D000D0E3
:1032E000CDB7DEB70E940C18811102C00E94F21700
:1032F00095E6998308C00E940D0B8FE39CE9019726
:10330000F1F700C00000A981A150A983A111F3CF5A
:1033100089E20E945E19811110C18AE20E945E1941
:1033200081110E94F21785E00E945E1981110E94AE
:10333000FF180E94171880931E0287E00E945E19F2
:10334000882371F08BE10E945E19882309F4D1C0B3
:1033500090911E02892F8D7F91FF826080931E02C3
:1033600080911E020E941B180E94291890E09093E1
:10337000500280934F0280EE0E945E19882341F034
:1033800090914F02892F8E7F90FF816080934F0232
:1033900089E30E945E19882341F090914F02892FA2
:1033A0008D7F91FF826080934F0282EE0E945E19B2
:1033B000882341F090914F02892F8B7F92FF846088
:1033C00080934F0286EE0E945E19882341F090910F
:1033D0004F02892F877F93FF886080934F0283EE8F
:1033E0000E945E19882341F090914F02892F8F7EB1
:1033F00094FF806180934F0285E30E945E198823C9
:1034000041F090914F02892F8F7D95FF80628093CC
:103410004F0281E30E945E19882341F090914F0290
:10342000892F8F7B96FF806480934F0281E10E94F9
:103430005E19882341F090914F02892F97FB87F9FD
:10344000805880934F0280914F020E942D1887E28E
:103450000E945E1989838EE10E945E19882319F00B
:10346000B981B260B9838FE10E945E19882319F097
:1034700029812460298380E20E945E19882319F043
:1034800039813860398381E20E945E19882319F0FE
:1034900049814061498382E20E945E19882319F0C4
:1034A00059815062598383E20E945E19882319F082
:1034B00089818064898384E20E945E198823B1F146
:1034C00099819068998389810E9424183981232FDA
:1034D00030E050E040E029833A834B835C83CA01AB
:1034E000B9010F900F900F900F90DF91CF910C9436
:1034F0006B148EE00E945E19882339F090911E02B1
:10350000892F8B7F92FF846029CF80E10E945E1912
:1035100090911E02882329F0892F877F93FF88606E
:103520001DCF892F8E7F90FF816018CFA981A111B7
:10353000CACF0E942018282FCBCF0F900F900F904A
:103540000F90DF91CF9108958091220280FF12C0E9
:103550006091050185E0689FB0011124759567951C
:103560007595679560387105A8F561157105A1F12C
:10357000862F089581FF09C06091050185E0689F4D
:10358000B001112475956795EDCF6091050182FD1D
:103590000AC0809123028823D1F0909104016091A8
:1035A0000501891728F085E0689FB0011124DACF62
:1035B000869FB001112485E0869F9001879F300D82
:1035C0001124692F70E0C9010E941C25CBCF65E052
:1035D00070E0CECF8FE7089581E0089580912202B8
:1035E00080FF0CC06091030170E07595679575953B
:1035F00067956115710549F1862F089581FF06C011
:103600006091030170E075956795F3CF60910301B8
:1036100082FD0BC0909123029923A1F060910201D9
:1036200080910301961738F0682F70E060387105BB
:1036300000F38FE70895899FC001112470E00E9474
:103640001C25F4CF61E070E0D7CF81E00895803F82
:1036500031F40E94A41A8195809326020895813F37
:1036600019F40E94A41AF8CF823F31F40E94A41AE0
:103670008195809325020895833F19F40E94A41A2E
:10368000F8CF893F29F40E94EE1A8093270208950B
:103690008A3F21F40E94EE1A8195F7CF8B3F31F4D7
:1036A0000E94EE1A81958093280208958C3F19F4A8
:1036B0000E94EE1AF8CF843F31F480912402816099
:1036C000809324020895853F21F480912402826032
:1036D000F7CF863F21F4809124028460F1CF873FA9
:1036E00021F4809124028860EBCF883F21F48091FF
:1036F00024028061E5CF8D3F31F480912202816008
:103700008093220208958E3F21F4809122028260EC
:10371000F7CF8F3FB9F7809122028460F1CF90916B
:103720002502803F41F48091260287FD10922602F7
:10373000992371F00895813F29F48091260218168B
:10374000ACF3F6CF823F81F497FFF2CF10922502BF
:103750008091260290912702892B90912802892B33
:1037600049F7109223020895833F19F4191674F350
:10377000DFCF893F39F4809127021816CCF61092DA
:103780002702D6CF8A3F29F48091270287FFD0CF26
:10379000F6CF8B3F39F48091280287FFC9CF109272
:1037A0002802C6CF8C3F29F4809128021816BCF35A
:1037B000BFCF843F31F4809124028E7F8093240216
:1037C000B7CF853F21F4809124028D7FF7CF863FCC
:1037D00021F4809124028B7FF1CF873F21F48091E7
:1037E0002402877FEBCF883F21F4809124028F7ED3
:1037F000E5CF8D3F31F4809122028E7F80932202AB
:1038000097CF8E3F21F4809122028D7FF7CF8F3F9B
:1038100009F08ECF809122028B7FF0CF84E292E07C
:103820000E94E80B0E94AB18909321028093200223
:1038300008951F93CF93DF9300D000D000D0CDB771
:10384000DEB780912002909121020E94B718AC014E
:10385000809123022091060130E0811106C0209161
:1038600007019AE0299F900111244217530788F01D
:1038700020912502A0912602A98310912702B091E0
:103880002802BE8321110FC09A2F912B9B2B09F088
:10389000B2C026960FB6F894DEBF0FBECDBFDF9143
:1038A000CF911F9108958F3F19F08F5F809323026E
:1038B000121624F40E94A41A8093250280912502F6
:1038C00087FF05C00E94A41A819580932502298153
:1038D000121624F40E94A41A8093260280912602D4
:1038E00087FF05C00E94A41A8195809326028091CB
:1038F0002502882309F455C0309126023D833323E5
:1039000009F44FC0282F880F330B440B550B298324
:103910003A834B835C83CA01B9010E94232423E3C9
:1039200033E343E35FE369837A838B839C83698119
:103930007A818B819C810E94872469837A838B831F
:103940009C8369817A818B819C810E94EB236093A7
:1039500025028D81082E000C990BAA0BBB0B8983C5
:103960009A83AB83BC83BC01CD010E94232423E353
:1039700033E343E35FE369837A838B839C836981C9
:103980007A818B819C810E94872469837A838B83CF
:103990009C8369817A818B819C810E94EB23609357
:1039A0002602111624F40E94EE1A809327028091B9
:1039B000270287FF05C00E94EE1A81958093270297
:1039C0009E81191624F40E94EE1A80932802809199
:1039D000280287FF05C00E94EE1A81958093280275
:1039E00026960FB6F894DEBF0FBECDBFDF91CF9104
:1039F0001F910C940E1C8F3F09F057CF68CF85E0C4
:103A0000E4E2F2E0DF011D928A95E9F710922302C9
:103A1000109222020895809149020895CF93DF9376
:103A200000D00F92CDB7DEB720915502243019F5A2
:103A300023E029838A839B832093E9008FEF909171
:103A4000E800815095FD06C095ED9A95F1F70000CC
:103A50008111F5CF8091E80085FF0DC050E040E076
:103A600063E070E0CE0101960E946B1F8091E80038
:103A70008E778093E8000F900F900F90DF91CF9199
:103A80000895CF93DF9300D00F92CDB7DEB79C019E
:103A900080915502843031F582E0898320583109C4
:103AA0003B832A8383E08093E9008FEF9091E800C5
:103AB000815095FD06C095ED9A95F1F700008111B2
:103AC000F5CF8091E80085FF0DC050E040E063E055
:103AD00070E0CE0101960E946B1F8091E8008E7706
:103AE0008093E8000F900F900F90DF91CF91089591
:103AF000209155022430F1F422E02093E9002FEFC9
:103B00003091E800215035FD06C035ED3A95F1F7CA
:103B100000002111F5CF2091E80025FF0BC050E0F7
:103B200040E065E070E00E946B1F8091E8008E77B6
:103B30008093E8000895CF93DF93D82FC92F809109
:103B400055028430F1F4909112019923E9F090919B
:103B50004F0297FF19C08093E9008FEF9091E80022
:103B6000815095FD06C095E19A95F1F7000081110D
:103B7000F5CF8091E80050E040E060E270E085FD24
:103B80001AC0DF91CF91089581E08093E9008FEF13
:103B90009091E800815095FD06C095ED9A95F1F75A
:103BA00000008111F5CF8091E80085FFEACF50E059
:103BB00040E068E070E08D2F9C2F0E946B1F809189
:103BC000E8008E778093E80080E2ED2FFC2FA9E2D9
:103BD000B2E001900D928A95E1F7D3CF8091540223
:103BE000811109C00E94F3200E9450218091E200BF
:103BF00084608093E200089510925402089508951D
:103C000008950C94751842E061EC81E00E946F20E9
:103C100042E061EC82E00E946F2042E061EC83E0D0
:103C20000E946F2042E261EC84E00C946F2080914E
:103C30005702893089F148F4823009F494C0833006
:103C400009F44FC0813041F008958A3009F47BC0F7
:103C50008B3009F461C0089580915602813A09F0D1
:103C60003FC08091E800877F8093E80080915A02EE
:103C700090915B02892B61F460E289E292E070E04E
:103C80000E94BA1F8091E8008B778093E800089526
:103C900060E090E080E0F3CF80915602813201F540
:103CA00080915A0290915B02009711F00397C1F442
:103CB0008091E800877F8093E8008091E80082FF90
:103CC0000BC08091F100809349028091E8008B77CE
:103CD0008093E8000C94A320809155028111EDCFD0
:103CE000089580915602813AD9F780915A029091B5
:103CF0005B02892BA9F78091E800877F8093E80019
:103D00008091E80080FFFCCF809112018093F10048
:103D10008091E8008E77DCCF80915602813201F7E6
:103D200080915A0290915B02892BD1F68091E80034
:103D3000877F8093E8000E94A3208091580280939F
:103D400012010C94CC1080915602813249F6809178
:103D5000E800877F8093E8000E94A32080915902A9
:103D600080934A02089580915602813A09F0B8CFB3
:103D70008091E800877F8093E8008091E80080FFD1
:103D8000FCCF80914A02C2CF84B7877F84BF0FB631
:103D9000F894A895809160008861809360001092EB
:103DA00060000FBE80E880936100109261000E9465
:103DB000200C0E94F3200E9450218091E200846038
:103DC0008093E20078940E94D0230E94220C88E025
:103DD00091E00E94CC0B80915502853019F00E9431
:103DE000280CF9CF0E94321880915302882399F34E
:103DF0000E946018882379F30E94551FECCF9C0124
:103E0000DA01892F992783309105C1F068F4813058
:103E1000910509F445C0029761F48DE690E02CE12C
:103E20003CE02D933C93089581329105E1F0829717
:103E300039F190E080E030E020E0F3CFC90199272C
:103E4000213059F08230910559F0E8E1FCE0892BEE
:103E500081F7849190E09F01E4CFE0E0FCE0F9CFAE
:103E6000ECEEFBE0F6CF643020F7E62FF0E0EE0F4B
:103E7000FF1FEC5CFE4F2081318189E090E0D1CFC3
:103E80006430B8F670E0FB01EE0FFF1FE45DFE4FFB
:103E900020813181685D7E4FFB01808190E0C1CF40
:103EA00082E190E029E83CE0BCCF80E189BD82E17D
:103EB00089BD09B400FEFDCF8091D8008F7D80932D
:103EC000D8008091E00082608093E0008091E00063
:103ED00081FDFCCF0895AF92BF92CF92DF92FF9207
:103EE0000F931F93CF93DF936C01EB018A010E9424
:103EF000C220F82E811123C00115110539F0F801F7
:103F000080819181C81BD90BC80ED91EB12CA12C60
:103F10002097A9F08091E80085FD22C08091E800FB
:103F20008E778093E80001151105A1F0F8018081DA
:103F30009181A80EB91EB182A08285E0F82E8F2D46
:103F4000DF91CF911F910F91FF90DF90CF90BF90A5
:103F5000AF9008950E94C2208823D1F2F82EEFCFAF
:103F6000F60181916F018093F1002197FFEFAF1A65
:103F7000BF0ACECFFC01CB0120915C0230915D02E3
:103F80002617370790F0009729F42091E8002E7744
:103F90002093E80040E0009751F4411108C080915F
:103FA000E80082FF31C080E00895C901F3CF20917D
:103FB00055022223A9F12530A9F12091E80023FD23
:103FC0002DC02091E80022FDEACF2091E80020FFDB
:103FD000E2CF3091F3002091F200009719F02830E1
:103FE000310558F041E02830310509F040E02091DA
:103FF000E8002E772093E800CECF41914093F10066
:1040000001972F5F3F4FE9CF80915502882341F000
:10401000853041F08091E80083FFC1CF81E00895B1
:1040200082E0089583E00895FC01CB0120915C02B9
:1040300030915D022617370790F0009729F4209100
:10404000E8002E772093E80040E0009751F44111FA
:1040500008C08091E80082FF32C080E00895C90165
:10406000F3CF209155022223B1F12530B1F12091F7
:10407000E80023FD2EC02091E80022FDEACF209128
:10408000E80020FFE2CF3091F3002091F20000978A
:1040900019F02830310558F041E02830310509F099
:1040A00040E02091E8002E772093E800CECF4491A5
:1040B0004093F100319601972F5F3F4FE8CF8091F9
:1040C0005502882341F0853041F08091E80083FF5C
:1040D000C0CF81E0089582E0089583E00895982F8D
:1040E000973028F08F708093E90081E008959093D5
:1040F000E900242F762F50E0981731F07091EC00F2
:104100002091ED005091F00021FD02C09F5FE8CFAB
:104110003091EB003E7F3093EB003091ED003D7F1E
:104120003093ED003091EB0031603093EB007093F1
:10413000EC002093ED005093F0002091EE0027FD5D
:10414000E5CF80E008958091560287FF13C08091EB
:10415000E80082FF06C08091E8008B778093E8003A
:1041600004C0809155028111F2CF089580915502CB
:104170008823D9F38091E80080FFF8CF8091E80090
:104180008E77ECCF2091E4003091E50095E6A9010F
:104190002091EC00822F817020FF06C08091E80002
:1041A00080FF06C080E008952091E80022FD1AC03B
:1041B00080915502882389F0853089F08091EB0049
:1041C00085FD0FC02091E4003091E50042175307B0
:1041D000F9F29150E1F684E0089582E0089583E0D9
:1041E000089581E008950E9461210E946921E0EE16
:1041F000F0E0808181608083E8EDF0E080818F775E
:10420000808319BCA7EDB0E08C918E7F8C93808168
:104210008F7E80831092540208950F931F93CF9343
:10422000DF930E9461210E946921C8EDD0E088815E
:104230008F77888388818068888388818F7D888351
:1042400019BC109255021092510210925302109212
:10425000520200EE10E0F80180818B7F808388811C
:104260008160888342E060E080E00E946F20E1EEA0
:10427000F0E080818E7F8083E2EEF0E080818160DB
:104280008083808188608083F80180818E7F808335
:10429000888180618883DF91CF911F910F9108956C
:1042A000E8EDF0E080818F7E8083E7EDF0E08081B3
:1042B0008160808384E082BF81E0809354020C940B
:1042C0000D21E8EDF0E080818E7F80831092E20086
:1042D00008951092DA001092E10008951F920F9253
:1042E0000FB60F9211242F933F934F935F936F93C9
:1042F0007F938F939F93AF93BF93EF93FF9380919F
:10430000E10082FF0BC08091E20082FF07C0809134
:10431000E1008B7F8093E1000E94CF238091DA003F
:1043200080FF19C08091D80080FF15C08091DA000D
:104330008E7F8093DA008091D90080FF94C080E165
:1043400089BD82E189BD09B400FEFDCF81E0809383
:1043500055020E94EE1D8091E10080FF19C08091FE
:10436000E20080FF15C08091E2008E7F8093E20022
:104370008091E20080618093E2008091D8008062A9
:104380008093D80019BC85E0809355020E94001EDE
:104390008091E10084FF29C08091E20084FF25C064
:1043A00080E189BD82E189BD09B400FEFDCF809125
:1043B000D8008F7D8093D8008091E1008F7E80931C
:1043C000E1008091E2008F7E8093E2008091E20024
:1043D00081608093E20080915102882309F449C0F2
:1043E00084E0809355020E94011E8091E10083FFCA
:1043F00029C08091E20083FF25C08091E100877F82
:104400008093E10082E080935502109251028091E6
:10441000E1008E7F8093E1008091E2008E7F8093A7
:10442000E2008091E20080618093E20042E060E07F
:1044300080E00E946F208091F00088608093F000FF
:104440000E94FF1DFF91EF91BF91AF919F918F91BE
:104450007F916F915F914F913F912F910F900FBE80
:104460000F901F90189519BC109255020E94FC1DC8
:1044700072CF8091E30087FD02C081E0B2CF83E07C
:10448000B0CF1F920F920FB60F9211242F933F932C
:104490004F935F936F937F938F939F93AF93BF934C
:1044A000CF93DF93EF93FF93D091E900DF7080917A
:1044B000EC00C82FC17080FDC0E81092E900809127
:1044C000F000877F8093F00078940E9485221092FC
:1044D000E9008091F00088608093F000CD2BCF70D0
:1044E000C093E900FF91EF91DF91CF91BF91AF9120
:1044F0009F918F917F916F915F914F913F912F91FC
:104500000F900FBE0F901F9018951F93CF93DF93BE
:10451000CDB7DEB7AA970FB6F894DEBF0FBECDBFFA
:1045200086E592E0FC0101962091F100208322E0D3
:104530008E359207B9F70E94171E8091E80083FF1D
:1045400016C180915602909157029A3008F00FC11F
:10455000E92FF0E0EC55FA4D0C943025803881F0CD
:10456000823809F004C180915A028F708093E9006B
:104570008091EB0085FB882780F91092E90006C046
:104580008091520290915302911182609091E800C3
:10459000977F9093E8008093F1001092F100809152
:1045A000E8008E77E0C0882309F4CEC0823009F09D
:1045B000DEC0809158028111D1C080915A028F7063
:1045C00009F4D5C08093E9002091EB0020FFC6C01C
:1045D000933031F48091EB0080628093EB00BEC099
:1045E0009091EB0090619093EB0021E030E001C0EE
:1045F000220F8A95EAF72093EA001092EA00809150
:10460000EB008860EACF8111B2C0109158021F7789
:104610008091E3008078812B8093E3008091E80013
:10462000877F8093E8000E94A3208091E80080FFAC
:10463000FCCF8091E30080688093E30082E0111159
:1046400083E08093550293C08058823008F08FC079
:1046500080915802909159028C3D23E09207A1F578
:1046600083E08A838AE289834FB7F894DE01139648
:1046700020E03EE051E2E32FF0E050935700E49158
:1046800020FF03C0E295EF703F5FEF708E2F90E048
:10469000EA30C0F0C7968D939D932F5F243159F770
:1046A0004FBF8091E800877F8093E8006AE270E066
:1046B000CE0101960E94BA1F8091E8008B7780930B
:1046C000E80055C0C096E7CFAE014F5F5F4F6091E5
:1046D0005A020E94FF1EBC01892B09F448C0809138
:1046E000E800877F8093E80089819A810E941420E6
:1046F000E3CF8038E1F58091E800877F8093E80080
:10470000809151028093F1004ACF811130C0909185
:104710005802923060F58091E800877F8093E8002E
:10472000909351020E94A32080915102882311F09E
:1047300084E005C08091E30087FDFACF81E080939B
:1047400055020E94031E13C080915802813079F4F3
:1047500081E0933009F080E0809353021092E900E9
:104760008091E800877F8093E8000E94A3208091D9
:10477000E80083FF0AC08091E800877F8093E8000B
:104780008091EB0080628093EB00AA960FB6F894BC
:10479000DEBF0FBECDBFDF91CF911F910895089569
:1047A000CF93809155028823A1F0C091E900CF708A
:1047B0009091EC00892F817090FD80E8C82B1092B9
:1047C000E9008091E80083FD0E948522CF70C093AC
:1047D000E900CF9108950E94F2236894B1110C94DE
:1047E000812408950E94662488F09F5798F0B92F7D
:1047F0009927B751B0F0E1F0660F771F881F991F16
:104800001AF0BA95C9F714C0B13091F00E94802413
:10481000B1E008950C948024672F782F8827B85F23
:1048200039F0B93FCCF3869577956795B395D9F76D
:104830003EF490958095709561957F4F8F4F9F4F77
:104840000895E89409C097FB3EF490958095709583
:1048500061957F4F8F4F9F4F9923A9F0F92F96E9CC
:10486000BB279395F695879577956795B795F11141
:10487000F8CFFAF4BB0F11F460FF1BC06F5F7F4FDE
:104880008F4F9F4F16C0882311F096E911C07723F0
:1048900021F09EE8872F762F05C0662371F096E8F9
:1048A000862F70E060E02AF09A95660F771F881FC8
:1048B000DAF7880F9695879597F9089557FD9058E0
:1048C000440F551F59F05F3F71F04795880F97FBD4
:1048D000991F61F09F3F79F087950895121613068E
:1048E0001406551FF2CF4695F1DF08C016161706BD
:1048F0001806991FF1CF86957105610508940895F2
:10490000E894BB2766277727CB0197F908950E9483
:104910009A240C940B250E94FD2438F00E94042553
:1049200020F0952311F00C94F4240C94FA24112413
:104930000C9481240E945E2470F3959FC1F3950F1F
:1049400050E0551F629FF001729FBB27F00DB11D13
:10495000639FAA27F00DB11DAA1F649F6627B00DA3
:10496000A11D661F829F2227B00DA11D621F739F8C
:10497000B00DA11D621F839FA00D611D221F749F9A
:104980003327A00D611D231F849F600D211D822FE1
:10499000762F6A2F11249F5750409AF0F1F0882308
:1049A0004AF0EE0FFF1FBB1F661F771F881F915035
:1049B0005040A9F79E3F510580F00C94F4240C94CC
:1049C00081245F3FE4F3983ED4F38695779567950D
:1049D000B795F795E7959F5FC1F7FE2B880F911D5F
:1049E0009695879597F9089597F99F6780E870E005
:1049F00060E008959FEF80EC089500240A94161655
:104A0000170618060906089500240A9412161306BC
:104A1000140605060895092E0394000C11F488234A
:104A200052F0BB0F40F4BF2B11F460FF04C06F5F66
:104A30007F4F8F4F9F4F089597FB072E16F40094DA
:104A400007D077FD09D00E94362507FC05D03EF43B
:104A5000909581959F4F0895709561957F4F08952A
:104A6000EE0FFF1F0590F491E02D0994AA1BBB1BCC
:104A700051E107C0AA1FBB1FA617B70710F0A61B5E
:104A8000B70B881F991F5A95A9F780959095BC017F
:104A9000CD010895F999FECF92BD81BDF89A99276D
:104AA00080B50895A8E1B0E042E050E00C94722592
:104AB000262FF999FECF92BD81BDF89A019700B4D7
:104AC000021639F01FBA20BD0FB6F894FA9AF99A77
:104AD0000FBE08950196272F0E9459250C94582542
:104AE000DC01CB01FC01F999FECF06C0F2BDE1BDAE
:104AF000F89A319600B40D9241505040B8F708959D
:104B0000F894FFCFCE07DA07DE07E207E607EA07E9
:104B1000EE07F207F607FA07FE07020806080A087A
:104B20000E08120816081A08770E770ECF0ECF0E51
:104B3000130F2F0FA70EA70E3A0FA70E0210021089
:104B40006D10A70EA70E7610AE22D322B723D32264
:0C4B5000B72303232423B72379238523F4
:104B5C00FB012808140A321E0B1D9B1D781D411DDC
:104B6C000E1D01363766679091929394959697F047
:104B7C00F1F4303132333435404D3639570D0A0D9E
:0C4B8C00D40C9B0C2E0C470C600C790C18
:00000001FF
